:0300000002027B7E
:0C027B00787FE4F6D8FD75813D0202C2D8
:09000E00071400000000000000CE
:0404C3008E298F2AC5
:1004C70085292B852A2CD3E52C9400E52B94004015
:1004D70025752D00752E78D3E52E9400E52D940013
:1004E700400AE52E152E7002152D80EBE52C152CF4
:0604F7007002152B80D0FD
:0104FD0022DC
:1005D3008E3A8F3BE53B153BAE3A7002153AFFEF7F
:0405E3004E70F12243
:100580008F3CC2B5C2B6853C807F057E001204C395
:0C059000D2B47F057E001204C3C2B42266
:10059C008F3DD2B5C2B6853D807F057E001204C367
:0C05AC00D2B47F057E001204C3C2B4224A
:10055A008B378A388939AB37AA38A939120531FF5E
:10056A00EF60127837E475F00112054A120531FF7F
:06057A0012059C80E12245
:10038B00C290C291C292C293750E00750F007FE8A6
:10039B007E031204C3C2A6C2A7C2B47F147E00128E
:1003AB0004C37F381205807F0C1205807F0612056F
:1003BB00807F801205807F801205807F4F12059C05
:1003CB007F4B12059C751F00752000751D00751E57
:1003DB0000751200751301750C00750D00751B006F
:1003EB00751C007508007509005389004389117548
:1003FB008A48758CFF758B00758D4CD2AFD2A9D204
:02040B00AB2222
:1004FE00751F00752000D297C297C3E52094A4E51E
:10050E001F9406500A0520E5207002051F80EBD2CD
:10051E00972097FD3097FD2097FD12001EE47E0078
:03052E007F002229
:10001E00752400752300E523C3940550477522000F
:10002E00E522C39408502E3097FD752100E521C3BB
:10003E0094045004052180F5309710E52425E0F551
:10004E002443240130970A80FB8006E52425E0F541
:10005E0024052280CBAF2374162FF8A62475240016
:10006E00052380B2AF177E00AD167C00ED2FFFEC9E
:10007E003EFEAD187C00EF2DFFEE3CFEAD197C0070
:10008E00EF2DFFEE3CFEAD1A7C00EF6D7002EE6CB4
:10009E0060030201B27F801205807F4812059C7FAB
:1000AE003A12059CE51675F06484FFEF2430F525B1
:1000BE00E51675F00A84FFEF75F00A84AFF0EF24B1
:1000CE0030F526E51675F00A84AFF0EF2430F527EB
:1000DE007528007B007A00792512055A7F2E1205AD
:1000EE009CE51775F06484FFEF2430F525E5177550
:1000FE00F00A84FFEF75F00A84AFF0EF2430F52696
:10010E00E51775F00A84AFF0EF2430F52775280057
:10011E007B007A00792512055A7FC01205807F5424
:10012E0012059C7F3A12059CE51875F06484FFEF6A
:10013E002430F525E51875F00A84FFEF75F00A8472
:10014E00AFF0EF2430F526E51875F00A84AFF0EF26
:10015E002430F5277528007B007A00792512055A80
:10016E007F2E12059CE51975F06484FFEF2430F59F
:10017E0025E51975F00A84FFEF75F00A84AFF0EFEC
:10018E002430F526E51975F00A84AFF0EF2430F52A
:10019E00277528007B007A00792512055A7FE87EA4
:0901AE00031204C33097FDAF24D5
:0101B7002225
:1001B800E51345126003020261D28CC3E509946419
:1001C800E50894005013D3E509950DE508950C5002
:1001D80004C290800AD2908006750800750900C391
:1001E800E51194C8E5109400500302027A751000D6
:1001F800751100C3E50D945FE50C64809480401090
:10020800E50D150D7002150C750A00750B02801BA3
:10021800C3E50D9428E50C64809480500E050DE527
:100228000D7002050C750A00750B01E50B6401459C
:100238000A700F050DE50D7002050C750E00750F9F
:100248000022E50B6402450A7028E50D150D7002C1
:10025800150C750E00750F0022D28ED290C3E51CC6
:100268009406E51B9400400A751B00751C00C28E9D
:03027800C290220F
:10040D00751D00751E00752F00753000C3E5309405
:10041D0001E52F64809480503DD2950000000000CE
:10042D0000000000000000000000C2950000000068
:10043D000000007FF47E011205D3209608051EE50D
:10044D001E7002051D7FC87E001204C30530E53005
:10045D007002052F80B6E51E6401451D70067E00F5
:09046D007F012222E47E007F00E1
:010476002263
:1003070020A57BD2937535007536007F147E0012C9
:1003170004C320A56220A541753300753400C3E5E9
:10032700349428E533648094A3502230A515C3E59F
:10033700369406E5356480948050081204FE7E00EA
:100347007F01220534E5347002053380D10536E597
:100357003670020535B29380BCE5134512700C75F3
:1003670012007513017E007F022222751200751399
:10037700007E007F022222E47E007F002222E47EAC
:03038700007F00F4
:01038A002250
:1004770012038BE513451270051201B88038120478
:100487000D8E1D8F1EE51E6401451D7011751D0023
:10049700751E00751B00751C001201B8801830907E
:1004A70015C3E51C943CE51B9400400A751B0075B9
:0C04B7001C00C28EC29012030780B82205
:03000B000205B833
:1005B800C0E0758A48758CFF0509E50970020508D1
:0B05C8000511E51170020510D0E032B3
:03001B000205E7F4
:1005E700C0E0758B00758D4C051CE51C7002051B62
:0305F700D0E0321F
:10028700020477E493A3F8E493A34003F68001F212
:1002970008DFF48029E493A3F85407240CC8C33378
:1002A700C4540F4420C8834004F456800146F6DF47
:1002B700E4800B010204081020408090000EE47EC9
:1002C700019360BCA3FF543F30E509541FFEE4933C
:1002D700A360010ECF54C025E060A840B8E493A303
:1002E700FAE493A3F8E493A3C8C582C8CAC583CA2E
:1002F700F0A3C8C582C8CAC583CADFE9DEE780BEE6
:0100170000E8
:10053100BB010689828A83E0225002E722BBFE02C8
:09054100E32289828A83E49322FB
:10054A00FAE6FB0808E6F925F0F618E6CA3AF622B2
:00000001FF
